:060000000A128A115C2CBB
:1008980083120313091001300A128A1190240A12D4
:1008A8008A1102300A128A116F240A128A1108006A
:1008B800A001A101A201A301A401A501A601A7010C
:1008C800A801A901AA01AB01AC01AD01AE018301E8
:1008D8000A128A11DB2CF1000430F0007008F200D3
:1008E8005330F0007008F3007A2C7A2C0130F302B0
:1008F800031D7F2C802C7A2C812C0130F202031DE1
:10090800862C872C742C882C0130F102031D8D2C29
:100918008E2C702C8F2C0800F20083120313080809
:100928000F3972048800891489107208F0000430A5
:100938000310F00DFF3E031D9C2C08080F397004AE
:100948008800891489100D30F0007008F100AD2C72
:10095800AD2C0130F102031DB22CB32CAD2CB42CFC
:100968000800F20083120313091408080F397204EF
:100978008800891489107208F00004300310F00D03
:10098800FF3E031DC22C08080F3970048800891423
:1009980089100D30F0007008F100D32CD32C0130F1
:1009A800F102031DD82CD92CD32CDA2C080083167D
:1009B8000313811389018701880107309F0083127F
:1009C80003130911071064300A128A116F240A12DE
:1009D8008A110A128A1112250A128A110A128A1118
:1009E8004C240A128A11F82C0A128A11CD260A12EE
:1009F8008A11831203132A08FC007C08AE003030E9
:100A0800FC007C08AE072E080A128A11E1250A129A
:100A18008A11F82CF82C0A128A1100288312031361
:100A280009100F300A128A116F240A128A11303005
:100A38008312031388008914891005300A128A1159
:100A48006F240A128A118312031389148910213022
:100A5800F4007408F500312D312D0130F502031D25
:100A6800362D372D312D8312031389148910053043
:100A78000A128A116F240A128A1120308312031372
:100A88008800891489100D30F4007408F6004D2D83
:100A98004D2D0130F602031D522D532D4D2D542D91
:100AA80028300A128A1190240A128A1108300A1270
:100AB8008A1190240A128A110F300A128A1190247E
:100AC8000A128A1106300A128A1190240A128A110F
:100AD8000800F601F11F712D722D7B2DF009F10927
:100AE800F00A0319F10AF6010314F60D7B2DF31F22
:100AF8007E2D7F2D892DF209F309F20A0319F30AD5
:100B08000130F4007408F606892DF701F801710820
:100B180070040319902D912DCF2DF5010314F50DB7
:100B2800A12D01300310F00DF10DFF3E031D962D90
:100B38000130F4007408F507A12DF11FA42DA52D8F
:100B4800952DA72DA72D01300310F70DF80DFF3EA9
:100B5800031DA82D71087302031DB42D70087202BD
:100B6800031CB72DB82DC02D7008F2027108031CA4
:100B7800F303F3027714C02D01300310F10CF00CCD
:100B8800FF3E031DC12D0130F502031DCC2DCD2DD7
:100B9800A72DCF2DCF2D7608031DD32DD92DF709DD
:100BA800F809F70A0319F80AD92D7808F101F107AD
:100BB8007708F001F007E02D0800F4007408313AD6
:100BC800031DE72DE82DEE2D0A128A114C240A1276
:100BD8008A11CC2E7408323A031DF32DF42D002E01
:100BE8008312031307140713871731300A128A1167
:100BF800B5240A128A11CC2E7408333A031D052E27
:100C0800062E0D2E34300A128A11B5240A128A11C2
:100C1800CC2E7408343A031D122E132E1A2E373098
:100C28000A128A11B5240A128A11CC2E7408353A90
:100C3800031D1F2E202E272E30300A128A11B524AC
:100C48000A128A11CC2E7408363A031D2C2E2D2E2A
:100C5800342E32300A128A11B5240A128A11CC2E87
:100C68007408373A031D392E3A2E412E35300A12B0
:100C78008A11B5240A128A11CC2E7408383A031D39
:100C8800462E472E4E2E38300A128A11B5240A12E3
:100C98008A11CC2E7408393A031D532E542E5B2E1C
:100CA8003D300A128A11B5240A128A11CC2E740812
:100CB8003A3A031D602E612E682E33300A128A11CB
:100CC800B5240A128A11CC2E74083B3A031D6D2EE6
:100CD8006E2E752E36300A128A11B5240A128A1120
:100CE800CC2E74083C3A031D7A2E7B2E822E393086
:100CF8000A128A11B5240A128A11CC2E74083D3AB8
:100D0800031D872E882E8F2E2B300A128A11B524A8
:100D18000A128A11CC2E74083E3A031D942E952E81
:100D28009C2E2D300A128A11B5240A128A11CC2E53
:100D380074083F3A031DA12EA22EA92E78300A125C
:100D48008A11B5240A128A11CC2E7408403A031D60
:100D5800AE2EAF2EB62E2F300A128A11B5240A12E3
:100D68008A11CC2E74080A128A11B5240A128A1123
:100D7800CC2ECC2ECC2ECC2ECC2ECC2ECC2ECC2E9B
:100D8800CC2ECC2ECC2ECC2ECC2ECC2ECC2ECC2E8B
:100D9800080083120313AF01B00132300A128A111E
:100DA8006F240A128A11D82E831203138601F03099
:100DB800831603138600831203130608F900043010
:100DC8000310F90CFF3E031DE42E79080F3A031DAA
:100DD800EE2EEF2ED82EF02E32300A128A116F2402
:100DE8000A128A11F72E0130831203132F063004DA
:100DF800031DFF2E002F022F762F762FA001A101B1
:100E08002108803AFF0080307F02031D0D2F043037
:100E18002002031C102F112F132FF72EF72E8312E9
:100E28000313860121082004031D1B2F1C2F202FCC
:100E3800B1010314B10D3F2F013020062104031D19
:100E4800262F272F2C2F0230F9007908B1003F2FC9
:100E5800023020062104031D322F332F382F04308F
:100E6800F9007908B1003F2F0830F9007908B1007E
:100E78003F2F3F2F3F2F310983160313860083121C
:100E880003130608F90004300310F90CFF3E031D94
:100E9800482F7908FA00FB017A08AC007B08AD00FE
:100EA8000F302C062D0403195A2F5B2F602F0130A9
:100EB800AF000030B000F72E0130A0070318A10AD8
:100EC8000030A1072108803AFF0080307F02031D0F
:100ED8006F2F04302002031C722F732F132FF72E4D
:100EE800F72EF72E831203132C080F3AF90079080E
:100EF800B2000830F0000030F1003208F900FA01C1
:100F08007908F2007A08F3000A128A116D250A128C
:100F18008A11013070067104031D932F942F9B2FA3
:100F28000430F900790883120313B200EC2F04305F
:100F3800F0000030F100831203133208F900FA01BF
:100F48007908F2007A08F3000A128A116D250A124C
:100F58008A11013070067104031DB32FB42FBB2F03
:100F68000330F900790883120313B200EC2F023022
:100F7800F0000030F100831203133208F900FA017F
:100F88007908F2007A08F3000A128A116D250A120C
:100F98008A11013070067104031DD32FD42FDB2F63
:100FA8000230F900790883120313B200EC2F831280
:100FB80003133208013A031DE22FE32FE72FB20192
:100FC8000314B20DEC2FB201EC2FEC2FEC2FEC2F09
:100FD8002108FA002008F9000230FF000310F90D7B
:100FE800FA0DFF0BF22F32087907AA000030031818
:080FF80001307A07AB0008008C
:02400E007AFF37
:00000001FF
